{
  "_format": "hh-sol-artifact-1",
  "contractName": "IdentityVerification",
  "sourceName": "contracts/IdentityVerification.sol",
  "abi": [
    {
      "anonymous": false,
      "inputs": [
        {
          "indexed": true,
          "internalType": "address",
          "name": "user",
          "type": "address"
        },
        {
          "indexed": false,
          "internalType": "bytes32",
          "name": "identityHash",
          "type": "bytes32"
        }
      ],
      "name": "IdentityRegistered",
      "type": "event"
    },
    {
      "inputs": [
        {
          "internalType": "address",
          "name": "",
          "type": "address"
        }
      ],
      "name": "identityHashes",
      "outputs": [
        {
          "internalType": "bytes32",
          "name": "",
          "type": "bytes32"
        }
      ],
      "stateMutability": "view",
      "type": "function"
    },
    {
      "inputs": [
        {
          "internalType": "bytes32",
          "name": "identityHash",
          "type": "bytes32"
        }
      ],
      "name": "registerIdentity",
      "outputs": [],
      "stateMutability": "nonpayable",
      "type": "function"
    },
    {
      "inputs": [
        {
          "internalType": "address",
          "name": "user",
          "type": "address"
        },
        {
          "internalType": "bytes32",
          "name": "providedHash",
          "type": "bytes32"
        }
      ],
      "name": "verifyIdentity",
      "outputs": [
        {
          "internalType": "bool",
          "name": "",
          "type": "bool"
        }
      ],
      "stateMutability": "view",
      "type": "function"
    }
  ],
  "bytecode": "0x6080604052348015600f57600080fd5b506104828061001f6000396000f3fe608060405234801561001057600080fd5b50600436106100415760003560e01c8063103d9fae1461004657806310a6ec99146100625780635581f37214610092575b600080fd5b610060600480360381019061005b9190610277565b6100c2565b005b61007c60048036038101906100779190610302565b6101d9565b604051610089919061033e565b60405180910390f35b6100ac60048036038101906100a79190610359565b6101f1565b6040516100b991906103b4565b60405180910390f35b6000801b6000803373ffffffffffffffffffffffffffffffffffffffff1673ffffffffffffffffffffffffffffffffffffffff1681526020019081526020016000205414610145576040517f08c379a000000000000000000000000000000000000000000000000000000000815260040161013c9061042c565b60405180910390fd5b806000803373ffffffffffffffffffffffffffffffffffffffff1673ffffffffffffffffffffffffffffffffffffffff168152602001908152602001600020819055503373ffffffffffffffffffffffffffffffffffffffff167f209ae2eb4ff1890ce972a80ec3e167b52d41ab089135cc6430447b1430e824be826040516101ce919061033e565b60405180910390a250565b60006020528060005260406000206000915090505481565b6000816000808573ffffffffffffffffffffffffffffffffffffffff1673ffffffffffffffffffffffffffffffffffffffff1681526020019081526020016000205414905092915050565b600080fd5b6000819050919050565b61025481610241565b811461025f57600080fd5b50565b6000813590506102718161024b565b92915050565b60006020828403121561028d5761028c61023c565b5b600061029b84828501610262565b91505092915050565b600073ffffffffffffffffffffffffffffffffffffffff82169050919050565b60006102cf826102a4565b9050919050565b6102df816102c4565b81146102ea57600080fd5b50565b6000813590506102fc816102d6565b92915050565b6000602082840312156103185761031761023c565b5b6000610326848285016102ed565b91505092915050565b61033881610241565b82525050565b6000602082019050610353600083018461032f565b92915050565b600080604083850312156103705761036f61023c565b5b600061037e858286016102ed565b925050602061038f85828601610262565b9150509250929050565b60008115159050919050565b6103ae81610399565b82525050565b60006020820190506103c960008301846103a5565b92915050565b600082825260208201905092915050565b7f4964656e7469747920616c726561647920726567697374657265642e00000000600082015250565b6000610416601c836103cf565b9150610421826103e0565b602082019050919050565b6000602082019050818103600083015261044581610409565b905091905056fea264697066735822122031a57571e5f0118a43761e64adfecff3072db01da5368a590da74ba03e21a66b64736f6c634300081c0033",
  "linkReferences": {},
  "deployedLinkReferences": {}
}